:100000000C9434000C9451000C9451000C94510049
:100010000C9451000C9451000C9451000C9451001C
:100020000C9451000C9451000C9451000C9451000C
:100030000C9451000C9451000C9451000C945100FC
:100040000C9451000C9451000C948C000C94BA0048
:100050000C9451000C9451000C9451000C945100DC
:100060000C9451000C94510011241FBECFEFD8E026
:10007000DEBFCDBF11E0A0E0B1E0EEE2F3E002C0F0
:1000800005900D92A430B107D9F711E0A4E0B1E0DA
:1000900001C01D92A934B107E1F70E9453000C94EE
:1000A00095010C940000BF92CF92DF92EF92FF92E5
:1000B0000F931F93DF93CF9300D000D0CDB7DEB75F
:1000C0003C9A87E690E00E94E400789480E090E01B
:1000D0006E010894C11CD11C30E1B32E20E9E22E40
:1000E00021E0F22E8C010F5F1F4FB6014AE050E075
:1000F0000E9450010E94350180E091E00E9435018C
:1001000088B18B2588B988E893E1F7013197F1F739
:100110000197D9F7C801E6CF1F920F920FB60F9241
:1001200011242F938F939F93EF93FF939091C0008F
:100130002091C600E0914601EF5FEF718091470189
:10014000E81711F492E007C09C71E0934601F0E0DB
:10015000EC5DFE4F208380914801982B90934801DD
:10016000FF91EF919F918F912F910F900FBE0F9064
:100170001F9018951F920F920FB60F9211248F9314
:100180009F93EF93FF9390914401809145019817BD
:1001900069F0E0914501EF5FEF71E0934501F0E018
:1001A000EC5FFE4F80818093C60005C08091C10046
:1001B0008F7D8093C100FF91EF919F918F910F9060
:1001C0000FBE0F901F9018959C0110924401109241
:1001D0004501109246011092470197FF03C082E04B
:1001E0008093C000832F80788093C5002093C40043
:1001F00088E98093C10086E08093C20008959091C1
:10020000460180914701981719F420E031E015C0AC
:10021000809147018F5F8F71E82FF0E0EC5DFE4F1A
:100220003081209148018093470110924801922F1C
:1002300080E0AC01430F511D9A01C9010895282F98
:10024000909144019F5F9F71809145019817E1F360
:10025000E92FF0E0EC5FFE4F208390934401809102
:10026000C10080628093C1000895CF93DF93EC01B9
:1002700003C021960E941F0188818823D1F7DF9156
:10028000CF910895CF93DF93EC0102C00E941F012C
:10029000FE01219684918823C9F7DF91CF910895BB
:1002A000FB019F01E8944230C4F04532B4F44A3077
:1002B00029F497FB1EF4909581959F4F642F772723
:1002C0000E948101805D8A330CF0895D8193CB01AE
:1002D0000097A1F716F45DE251931082C9010C94C6
:1002E0007101DC01FC01672F71917723E1F73297EF
:1002F00004C07C916D9370836291AE17BF07C8F301
:100300000895AA1BBB1B51E107C0AA1FBB1FA6175C
:10031000B70710F0A61BB70B881F991F5A95A9F7AE
:0E03200080959095BC01CD010895F894FFCF13
:04032E000D0A0000B4
:00000001FF
