:100000000C9454000C9471000C9471000C947100C9
:100010000C9471000C9471000C9471000C9471009C
:100020000C9471000C9471000C9471000C9471008C
:100030000C9471000C9471000C9471000C9471007C
:100040000C9471000C9471000C94A2000C94D000DC
:100050000C9471000C9471000C9471000C9471005C
:100060000C9471000C947100427566666572206F85
:10007000766572666C6F77206572726F723A2000D7
:1000800055415254204F76657272756E20457272DA
:100090006F723A200055415254204672616D6520BE
:1000A0004572726F723A200011241FBECFEFD8E064
:1000B000DEBFCDBF11E0A0E0B1E0E0EDF2E002C0B4
:1000C00005900D92A631B107D9F711E0A6E1B1E094
:1000D00001C01D92AB35B107E1F70E9473000C948B
:1000E00066010C940000CF93DF933C9A87E690E082
:1000F0000E94FA00789480E091E00E944B010E94F7
:100100001501EC0190FDFBCF94FF04C085E990E060
:100110000E945801D3FF04C080E890E00E9458017B
:10012000D1FF04C088E690E00E945801CE3621F449
:10013000449A89E091E0E1CFCD3609F744988FE009
:1001400091E0DBCF1F920F920FB60F9211242F93E5
:100150008F939F93EF93FF939091C0002091C600DF
:10016000E0915801EF5FEF7180915901E81711F4A8
:1001700092E007C09C71E0935801F0E0EA5CFE4F0A
:10018000208380915A01982B90935A01FF91EF910F
:100190009F918F912F910F900FBE0F901F901895E8
:1001A0001F920F920FB60F9211248F939F93EF938C
:1001B000FF939091560180915701981769F0E09153
:1001C0005701EF5FEF71E0935701F0E0EA5EFE4FF9
:1001D00080818093C60005C08091C1008F7D80938F
:1001E000C100FF91EF919F918F910F900FBE0F90E3
:1001F0001F9018959C011092560110925701109271
:1002000058011092590197FF03C082E08093C0000B
:10021000832F80788093C5002093C40088E9809361
:10022000C10086E08093C2000895909158018091AA
:100230005901981719F420E031E015C08091590157
:100240008F5F8F71E82FF0E0EA5CFE4F30812091E4
:100250005A018093590110925A01922F80E0AC010B
:10026000430F511D9A01C9010895282F90915601FD
:100270009F5F9F71809157019817E1F3E92FF0E09C
:10028000EA5EFE4F2083909356018091C100806208
:100290008093C1000895CF93DF93EC0103C02196B2
:1002A0000E94350188818823D1F7DF91CF9108958D
:1002B000CF93DF93EC0102C00E943501FE0121962D
:1002C00084918823C9F7DF91CF910895F894FFCFE7
:1002D00052656164792E0D0A004F6E2E0D0A004F93
:0602E00066662E0D0A0007
:00000001FF
